:1008DB00206C63642034626974206D6574686F6486
:1008EB00200064657369676E206279205256200080
:1008BB00E4FDFCC3ED9FEC9E5015E4FBFA0BBB0073
:0F08CB00010ABA04F8BBFBF50DBD00010C80E477
:0108DA0022FB
:10087700EF54F0F590C291C290D292C292EFC45455
:10088700F0F590C291C290D292C2927F037E00028D
:0208970008BB9C
:0A092000E4F580F590F5A0F5B02293
:10082B007F0A7E001208BB7F021208777F2812080E
:10083B00777F0E1208777F061208777F01120877F1
:07084B007F0A7E000208BBDA
:10089900EF54F0F590C291D290D292C292EFC45423
:1008A900F0F590C291D290D292C2927F037E00025B
:0208B90008BB7A
:100852008B088A09890AAB08AA09A90A1208FB604F
:1008620013050AE50A7002050914F91208FBFF12C2
:05087200089980E2225C
:1008000012092012082B7F011208777BFF7A0879E2
:10081000DB1208527FC01208777BFF7A0879ED124D
:0B08200008527F647E001208BB80DBE2
:03000000020914DE
:0C091400787FE4F6D8FD75810A02080027
:1008FB00BB010689828A83E0225002E722BBFE02FB
:09090B00E32289828A83E493222D
:00000001FF
